:100000000C942A000C9434000C9434000C943400AA
:100010000C9434000C9434000C9434000C94340090
:100020000C9434000C9434000C9434000C94340080
:100030000C9434000C9434000C9434000C94340070
:100040000C9434000C9434000C9434000C94340060
:100050000C94340011241FBECFE5D8E0DEBFCDBF25
:100060000E9474030C949A030C940000DF93CF93C6
:10007000CDB7DEB7EAE3F0E08CEF8083E7E3F0E0B2
:100080008FED8083E4E3F0E08FEF8083E1E3F0E045
:100090008FEF8083CF91DF910895DF93CF93CDB71A
:1000A000DEB72D970FB6F894DEBF0FBECDBF8983A4
:1000B0006A834B838981282F30E03D872C878C858C
:1000C0009D858230910509F450C02C853D852330F3
:1000D000310534F48C859D858130910571F0EBC03C
:1000E0002C853D852330310509F477C08C859D85AD
:1000F0008430910509F4A9C0DEC08B81282F30E03F
:100100003B872A878A859B850097D1F02A853B8586
:100110002130310509F0CFC0ABE3B0E0EBE3F0E014
:100120008081482F8A81282F30E081E090E0022EE4
:1001300002C0880F991F0A94E2F7842B8C93BBC0EE
:10014000ABE3B0E0EBE3F0E08081482F8A81282F19
:1001500030E081E090E0022E02C0880F991F0A94DF
:10016000E2F7809584238C93A6C08B81282F30E002
:1001700039872887888599850097D1F02885398522
:100180002130310509F097C0A8E3B0E0E8E3F0E0E2
:100190008081482F8A81282F30E081E090E0022E74
:1001A00002C0880F991F0A94E2F7842B8C9383C0B6
:1001B000A8E3B0E0E8E3F0E08081482F8A81282FAF
:1001C00030E081E090E0022E02C0880F991F0A946F
:1001D000E2F7809584238C936EC08B81282F30E0CA
:1001E0003F832E838E819F810097D1F02E813F81A6
:1001F0002130310509F05FC0A5E3B0E0E5E3F0E0B0
:100200008081482F8A81282F30E081E090E0022E03
:1002100002C0880F991F0A94E2F7842B8C934BC07D
:10022000A5E3B0E0E5E3F0E08081482F8A81282F44
:1002300030E081E090E0022E02C0880F991F0A94FE
:10024000E2F7809584238C9336C08B81282F30E091
:100250003D832C838C819D810097C9F02C813D8149
:100260002130310541F5A2E3B0E0E2E3F0E0808126
:10027000482F8A81282F30E081E090E0022E02C0D2
:10028000880F991F0A94E2F7842B8C9314C0A2E381
:10029000B0E0E2E3F0E08081482F8A81282F30E04F
:1002A00081E090E0022E02C0880F991F0A94E2F7C5
:1002B000809584238C932D960FB6F894DEBF0FBEE5
:1002C000CDBFCF91DF910895DF93CF9300D000D0C1
:1002D0000F92CDB7DEB78A836B838A81282F30E0F7
:1002E0003D832C834C815D814230510541F18C81ED
:1002F0009D818330910534F42C813D81213031057D
:1003000061F052C04C815D814330510551F18C81C7
:100310009D8184309105B9F147C0E9E3F0E0808127
:10032000282F30E08B81882F90E0A90102C05595DD
:1003300047958A95E2F7CA018170898335C0E6E363
:10034000F0E08081282F30E08B81882F90E0A90198
:1003500002C0559547958A95E2F7CA018170898355
:1003600023C0E3E3F0E08081282F30E08B81882FE9
:1003700090E0A90102C0559547958A95E2F7CA0118
:100380008170898311C0E0E3F0E08081282F30E0A4
:100390008B81882F90E0A90102C0559547958A95D9
:1003A000E2F7CA018170898389810F900F900F90C5
:1003B0000F900F90CF91DF910895DF93CF9300D0EE
:1003C00000D0CDB7DEB789836A838981282F30E0DA
:1003D0003C832B838B819C818230910551F12B8151
:1003E0003C812330310534F48B819C81813091052F
:1003F00061F05AC02B813C812330310571F18B8132
:100400009C8184309105E9F14FC0ABE3B0E0EBE3B0
:10041000F0E08081482F8A81282F30E081E090E051
:10042000022E02C0880F991F0A94E2F784278C934A
:100430003BC0A8E3B0E0E8E3F0E08081482F8A8188
:10044000282F30E081E090E0022E02C0880F991F33
:100450000A94E2F784278C9327C0A5E3B0E0E5E394
:10046000F0E08081482F8A81282F30E081E090E001
:10047000022E02C0880F991F0A94E2F784278C93FA
:1004800013C0A2E3B0E0E2E3F0E08081482F8A816C
:10049000282F30E081E090E0022E02C0880F991FE3
:1004A0000A94E2F784278C930F900F900F900F908F
:1004B000CF91DF910895DF93CF9300D000D0CDB7D7
:1004C000DEB789836A838981282F30E03C832B83C0
:1004D0008B819C8182309105D9F02B813C81233026
:1004E000310534F48B819C818130910561F01EC00F
:1004F0002B813C812330310581F08B819C818430BC
:10050000910581F013C0EBE3F0E08A8180830EC097
:10051000E8E3F0E08A81808309C0E5E3F0E08A81C6
:10052000808304C0E2E3F0E08A8180830F900F9023
:100530000F900F90CF91DF910895DF93CF9300D06C
:1005400000D000D0CDB7DEB78A836B834C838A811D
:10055000282F30E03E832D834D815E81423051054E
:1005600041F18D819E818330910534F42D813E814E
:100570002130310561F052C04D815E81433051051B
:1005800051F18D819E8184309105B9F147C0EAE334
:10059000F0E08081282F30E08B81882F90E0A90146
:1005A00002C0559547958A95E2F7CA018170898303
:1005B00035C0E7E3F0E08081282F30E08B81882F81
:1005C00090E0A90102C0559547958A95E2F7CA01C6
:1005D0008170898323C0E4E3F0E08081282F30E03C
:1005E0008B81882F90E0A90102C0559547958A9587
:1005F000E2F7CA018170898311C0E1E3F0E08081F4
:10060000282F30E08B81882F90E0A90102C05595FA
:1006100047958A95E2F7CA01817089838981882389
:1006200029F48A816B814C810E944D0026960FB679
:10063000F894DEBF0FBECDBFCF91DF910895DF9359
:10064000CF93CDB7DEB7ADE2B0E0EDE2F0E0808170
:1006500080618C93ADE2B0E0EDE2F0E080818160FA
:100660008C93ADE2B0E0EDE2F0E080818D7F8C9381
:10067000AEE2B0E0EEE2F0E080818E7F8C93ADE2FE
:10068000B0E0EDE2F0E0808180648C93CF91DF9167
:100690000895DF93CF93CDB7DEB7ADE2B0E0EDE2E2
:1006A000F0E080818F7E8C93ADE2B0E0EDE2F0E08F
:1006B000808180648C93CF91DF910895DF93CF93F5
:1006C0000F92CDB7DEB78983EFE2F0E089818083B6
:1006D000EEE2F0E080818823DCF7EFE2F0E0808159
:1006E0000F90CF91DF910895DF93CF93CDB7DEB711
:1006F0000E94360081E060E041E00E949D0281E0BE
:1007000061E041E00E949D020E941F0381E060E0E1
:100710000E946401882321F481E40E945E03F6CFE5
:1007200081E061E00E946401882381F782E40E94F5
:080730005E03ECCFF894FFCF4B
:00000001FF
