:100000000C942A000C94430A0C94700A0C949D0AD8
:100010000C9447000C9447000C9447000C94470044
:100020000C9447000C9447000C949E0D0C94D10D39
:100030000C9447000C94590C0C94860C0C944700BB
:100040000C945F060C9447000C9447000C944700F6
:100050000C94470011241FBECFE5D8E0DEBFCDBF12
:1000600010E0A0E6B0E0EEECF0E202C005900D92E8
:10007000A237B107D9F710E0A2E7B0E001C01D92A6
:10008000A039B107E1F70E94330F0C9465100C946E
:100090000000EF92FF920F931F937B018C0120E0F1
:1000A00030E040E05FE40E94490388238CF0C801FF
:1000B000B70120E030E040E05FE40E94C1010E940F
:1000C000A9039B01AC01205030404040504806C07D
:1000D000C801B7010E94A9039B01AC01B901CA0183
:1000E0001F910F91FF90EF900895A0E0B0E0EBE733
:1000F000F0E00C942E10DC012B01FA019C9192305F
:1001000008F439C1EB018881823008F433C194309E
:1001100069F4843009F02FC111969C91119789815F
:10012000981709F428C1A0E6B0E025C1843009F48D
:1001300021C18230A9F4923009F01DC19A01AD01AC
:1001400088E0EA010990AE01E90109929E0181501F
:10015000C1F7E201898111969C918923818308C1AD
:10016000923009F407C112962D903C901397EB0141
:100170008A819B811496AD90BD90CD90DC901797AD
:10018000EC80FD800E811F819101281B390BB90184
:1001900037FF04C066277727621B730B6032710537
:1001A0000CF061C0121613066CF537014801062EDB
:1001B00004C096948794779467940A94D2F721E0C8
:1001C00030E040E050E004C0220F331F441F551FB1
:1001D0006A95D2F721503040404050402E213F21B7
:1001E00040235123211531054105510521F021E01E
:1001F00030E040E050E079018A01E628F72808293C
:1002000019293CC0232BD1F1260E371E350146019A
:10021000062E04C096948794779467940A94D2F734
:1002200021E030E040E050E004C0220F331F441FC3
:10023000551F6A95D2F721503040404050402A2146
:100240003B214C215D21211531054105510521F04E
:1002500021E030E040E050E059016A01A628B728CB
:10026000C828D9280BC0821593052CF01C01AA249C
:10027000BB24650103C0EE24FF24870111969C91E5
:10028000D20111968C91981709F445C0992339F041
:10029000A80197012A193B094C095D0906C0A6016E
:1002A00095012E193F09400B510B57FD08C01182D3
:1002B0003382228224833583468357831DC081E0A5
:1002C00081833382228288279927DC01821B930B4A
:1002D000A40BB50B84839583A683B7830DC0220F2F
:1002E000331F441F551F24833583468357838281E0
:1002F000938101979383828324813581468157813D
:10030000DA01C9010197A109B1098F5F9F4FAF4F72
:10031000BF4328F30BC0918333822282EA0CFB1C7B
:100320000C1D1D1DE482F5820683178383E0808304
:10033000248135814681578157FF1AC0C901AA27F8
:1003400097FDA095BA2F81709070A070B0705695EF
:10035000479537952795822B932BA42BB52B848318
:100360009583A683B7838281938101969383828349
:10037000DF0101C0D201CD01CDB7DEB7E2E10C94BF
:100380004A10A0E2B0E0E7ECF1E00C943A10698387
:100390007A838B839C832D833E834F835887E9E048
:1003A000EE2EF12CEC0EFD1ECE010196B7010E943F
:1003B000D2048E010F5E1F4FCE010596B8010E9438
:1003C000D2048A8991E089278A8BC701B801AE01DE
:1003D000475E5F4F0E9475000E94FD03A096E6E015
:1003E0000C945610A0E2B0E0E8EFF1E00C943A1063
:1003F00069837A838B839C832D833E834F835887C5
:10040000F9E0EF2EF12CEC0EFD1ECE010196B701A6
:100410000E94D2048E010F5E1F4FCE010596B801D7
:100420000E94D204C701B801AE01475E5F4F0E942F
:1004300075000E94FD03A096E6E00C945610A0E221
:10044000B0E0E5E2F2E00C942E1069837A838B83AE
:100450009C832D833E834F835887CE010196BE0136
:10046000675F7F4F0E94D204CE010596BE016F5E8A
:100470007F4F0E94D2049985923088F0898982301A
:10048000C8F0943019F4823051F404C0843029F457
:10049000923081F480E690E0C6C0923049F420E0CA
:1004A0009A858A89981321E02A87CE010996BBC0D4
:1004B000823049F420E09A858A89981321E02A8BBA
:1004C000CE014196B0C02D843E844F8458886D88FB
:1004D0007E888F88988CEE24FF248701AA24BB2471
:1004E000650140E050E060E070E0E0E0F0E0C10174
:1004F00081709070892BE9F0E60CF71C081D191D1E
:100500009A01AB012A0D3B1D4C1D5D1D80E090E062
:10051000A0E0B0E0E614F7040805190520F481E036
:1005200090E0A0E0B0E0BA01A901480F591F6A1F8E
:100530007B1FAA0CBB1CCC1CDD1C97FE08C081E0F5
:1005400090E0A0E0B0E0A82AB92ACA2ADB2A3196B6
:10055000E032F10549F0660C771C881C991C569412
:10056000479437942794C3CFFA85EA892B893C892D
:100570008B859C85280F391F2E5F3F4F17C0CA01FE
:1005800081709070892B61F016950795F794E79428
:1005900080E090E0A0E0B0E8E82AF92A0A2B1B2BC3
:1005A00076956795579547952F5F3F4F77FDE7CF36
:1005B0000CC0440F551F661F771F17FD4160EE0CDE
:1005C000FF1C001F111F21503040403090E05907A0
:1005D00090E0690790E4790760F32B8F3C8FDB0193
:1005E000CA018F779070A070B07080349105A1051A
:1005F000B10561F447FD0AC0E114F10401051105DC
:1006000029F0405C5F4F6F4F7F4F40781A8EFE1786
:1006100011F081E08A8F4D8F5E8F6F8F78A383E01A
:10062000898FCE0149960E94FD03A096E2E10C94C9
:100630004A10A8E1B0E0EFE1F3E00C943A106983CE
:100640007A838B839C832D833E834F83588789E0F5
:10065000E82EF12CEC0EFD1ECE010196B7010E9492
:10066000D2048E010F5E1F4FCE010596B8010E9485
:10067000D2048985823040F08989823028F0C70110
:10068000B8010E944A0501C08FEF6896E6E00C941D
:100690005610A8E1B0E0EFE4F3E00C943A1069835F
:1006A0007A838B839C832D833E834F83588789E095
:1006B000E82EF12CEC0EFD1ECE010196B7010E9432
:1006C000D2048E010F5E1F4FCE010596B8010E9425
:1006D000D2048985823040F08989823028F0C701B0
:1006E000B8010E944A0501C08FEF6896E6E00C94BD
:1006F0005610A8E1B0E0EFE7F3E00C943A106983FC
:100700007A838B839C832D833E834F83588789E034
:10071000E82EF12CEC0EFD1ECE010196B7010E94D1
:10072000D2048E010F5E1F4FCE010596B8010E94C4
:10073000D2048985823040F08989823028F0C7014F
:10074000B8010E944A0501C081E06896E6E00C9479
:100750005610ACE0B0E0EFEAF3E00C943E10698391
:100760007A838B839C83CE010196BE016B5F7F4FA2
:100770000E94D2048D81823061F1823050F1843048
:1007800021F48E81882351F12EC02F81388537FDC9
:1007900020C06E812F3131051CF06623F9F023C093
:1007A0008EE190E0821B930B29853A854B855C8511
:1007B00004C056954795379527958A95D2F76623B5
:1007C000B1F050954095309521953F4F4F4F5F4F79
:1007D0000EC020E030E040E050E009C02FEF3FEFD6
:1007E0004FEF5FE704C020E030E040E050E8B9019F
:1007F000CA012C96E2E00C945A10DF92EF92FF921D
:100800000F931F93FC01E480F58006811781D1804E
:100810008081823048F480E090E0A0E1B0E0E82AF6
:10082000F92A0A2B1B2BA5C0843009F49FC0823003
:1008300021F4EE24FF24870105C0E114F104010531
:10084000110519F4E0E0F0E096C0628173819FEF3A
:10085000623879070CF05BC022E83FEF261B370BAC
:100860002A3131052CF020E030E040E050E02AC091
:10087000B801A701022E04C0769567955795479554
:100880000A94D2F781E090E0A0E0B0E004C0880FC5
:10089000991FAA1FBB1F2A95D2F70197A109B10979
:1008A0008E219F21A023B1230097A105B10521F03E
:1008B00081E090E0A0E0B0E09A01AB01282B392B59
:1008C0004A2B5B2BDA01C9018F779070A070B07052
:1008D00080349105A105B10539F427FF09C0205CDA
:1008E0003F4F4F4F5F4F04C0215C3F4F4F4F5F4F13
:1008F000E0E0F0E02030A0E03A07A0E04A07A0E402
:100900005A0710F0E1E0F0E079018A0127C0603871
:10091000710564F5FB01E158FF4FD801C7018F77DE
:100920009070A070B07080349105A105B10539F4C4
:10093000E7FE0DC080E490E0A0E0B0E004C08FE3EB
:1009400090E0A0E0B0E0E80EF91E0A1F1B1F17FFA1
:1009500005C016950795F794E794319687E01695AC
:100960000795F794E7948A95D1F705C0EE24FF2404
:100970008701EFEFF0E06E2F679566276795902F60
:100980009F77D794DD24D7948E2F8695492F462BB9
:10099000582F5D29B701CA011F910F91FF90EF9069
:1009A000DF900895FC01DB01408151812281622F9B
:1009B0006F7770E0221F2227221F9381892F880FD3
:1009C000822B282F30E0991F9927991F11969C930D
:1009D000119721153105A9F54115510561057105DD
:1009E00011F482E037C082E89FEF13969C938E93B8
:1009F00012979A01AB0167E0220F331F441F551F66
:100A00006A95D1F783E08C930DC0220F331F441FEA
:100A1000551F12968D919C911397019713969C9355
:100A20008E931297203080E0380780E0480780E4FA
:100A3000580758F314962D933D934D935C93179755
:100A400008952F3F310579F4411551056105710570
:100A500019F484E08C93089564FF03C081E08C93C3
:100A600012C01C9210C02F57304013963C932E9307
:100A7000129783E08C9387E0440F551F661F771F02
:100A80008A95D1F7706414964D935D936D937C9322
:100A9000179708951F93DC01FB019C91923008F495
:100AA00047C08081823008F443C0943051F41196DD
:100AB0001C91843099F58181682F70E0611B710968
:100AC0003FC0843021F0923031F48230B9F181811D
:100AD000882389F12DC011961C9111978230F1F075
:100AE00081811817D9F412962D913C911397828128
:100AF00093818217930794F028173907BCF0149656
:100B00008D919D910D90BC91A02D248135814681C0
:100B10005781281739074A075B0718F4112341F05A
:100B20000AC082179307A407B50740F4112319F0F0
:100B300061E070E005C06FEF7FEF02C060E070E041
:100B4000CB011F910895DF93CF93CDB7DEB7A7E216
:100B5000B0E0E7E2F0E080818F778C93A7E2B0E02D
:100B6000E7E2F0E0808180648C93A7E2B0E0E7E206
:100B7000F0E080818F7D8C93A6E2B0E0E6E2F0E0C9
:100B80008081877F8C93A6E2B0E0E6E2F0E080818E
:100B90008F7B8C93A6E2B0E0E6E2F0E0808181609A
:100BA0008C93A6E2B0E0E6E2F0E0808182608C9374
:100BB000A6E2B0E0E6E2F0E0808184608C93A6E2F9
:100BC000B0E0E6E2F0E0808180688C93CF91DF9125
:100BD0000895DF93CF930F92CDB7DEB78983A7E255
:100BE000B0E0E7E2F0E08081982F907E8981892B48
:100BF0008C93A6E2B0E0E6E2F0E0808180648C9322
:100C0000E6E2F0E0808182958F70882F90E081701D
:100C100090700097A9F3A6E2B0E0E6E2F0E08081F0
:100C200080618C93E4E2F0E0808191810F90CF911C
:100C3000DF910895DF93CF930F92CDB7DEB789830D
:100C4000E6E2F0E080818295869586958370882F14
:100C500090E081709070009789F4A7E2B0E0E7E23D
:100C6000F0E08081982F907E8981892B8C93A6E279
:100C7000B0E0E6E2F0E0808180648C930F90CF9149
:100C8000DF910895DF93CF93CDB7DEB7E4E2F0E0D4
:100C900080819181CF91DF910895DF93CF9300D030
:100CA000CDB7DEB79A83898389819A819093730047
:100CB000809372000F900F90CF91DF9108951F9253
:100CC0000F920FB60F9211242F933F934F935F9380
:100CD0006F937F938F939F93AF93BF93EF93FF9304
:100CE000DF93CF93CDB7DEB7E0917200F091730040
:100CF0000995CF91DF91FF91EF91BF91AF919F91B6
:100D00008F917F916F915F914F913F912F910F90B4
:100D10000FBE0F901F901895DF93CF93CDB7DEB71E
:100D2000EAE3F0E08CEF8083E7E3F0E08BEF808391
:100D3000E4E3F0E08FEB8083E1E3F0E082EF808397
:100D4000CF91DF910895DF93CF93CDB7DEB72D9785
:100D50000FB6F894DEBF0FBECDBF89836A834B8385
:100D60008981282F30E03D872C878C859D858230B6
:100D7000910509F450C02C853D852330310534F4AC
:100D80008C859D858130910571F0EBC02C853D856A
:100D90002330310509F477C08C859D858430910519
:100DA00009F4A9C0DEC08B81282F30E03B872A8759
:100DB0008A859B850097D1F02A853B8521303105B6
:100DC00009F0CFC0ABE3B0E0EBE3F0E08081482F67
:100DD0008A81282F30E081E090E0022E02C0880F47
:100DE000991F0A94E2F7842B8C93BBC0ABE3B0E06D
:100DF000EBE3F0E08081482F8A81282F30E081E00A
:100E000090E0022E02C0880F991F0A94E2F78095A5
:100E100084238C93A6C08B81282F30E039872887C4
:100E2000888599850097D1F028853985213031054D
:100E300009F097C0A8E3B0E0E8E3F0E08081482F34
:100E40008A81282F30E081E090E0022E02C0880FD6
:100E5000991F0A94E2F7842B8C9383C0A8E3B0E037
:100E6000E8E3F0E08081482F8A81282F30E081E09C
:100E700090E0022E02C0880F991F0A94E2F7809535
:100E800084238C936EC08B81282F30E03F832E8388
:100E90008E819F810097D1F02E813F8121303105D5
:100EA00009F05FC0A5E3B0E0E5E3F0E08081482F02
:100EB0008A81282F30E081E090E0022E02C0880F66
:100EC000991F0A94E2F7842B8C934BC0A5E3B0E002
:100ED000E5E3F0E08081482F8A81282F30E081E02F
:100EE00090E0022E02C0880F991F0A94E2F78095C5
:100EF00084238C9336C08B81282F30E03D832C8354
:100F00008C819D810097C9F02C813D812130310574
:100F100041F5A2E3B0E0E2E3F0E08081482F8A816E
:100F2000282F30E081E090E0022E02C0880F991F48
:100F30000A94E2F7842B8C9314C0A2E3B0E0E2E3BE
:100F4000F0E08081482F8A81282F30E081E090E016
:100F5000022E02C0880F991F0A94E2F7809584231D
:100F60008C932D960FB6F894DEBF0FBECDBFCF91F8
:100F7000DF910895DF93CF9300D000D00F92CDB7CB
:100F8000DEB78A836B838A81282F30E03D832C83F0
:100F90004C815D814230510541F18C819D818330CE
:100FA000910534F42C813D812130310561F052C02E
:100FB0004C815D814330510551F18C819D8184309C
:100FC0009105B9F147C0E9E3F0E08081282F30E0D6
:100FD0008B81882F90E0A90102C0559547958A958D
:100FE000E2F7CA018170898335C0E6E3F0E08081D1
:100FF000282F30E08B81882F90E0A90102C0559501
:1010000047958A95E2F7CA018170898323C0E3E39B
:10101000F0E08081282F30E08B81882F90E0A901BB
:1010200002C0559547958A95E2F7CA018170898378
:1010300011C0E0E3F0E08081282F30E08B81882F21
:1010400090E0A90102C0559547958A95E2F7CA013B
:101050008170898389810F900F900F900F900F906E
:10106000CF91DF910895DF93CF9300D000D0CDB71B
:10107000DEB789836A838981282F30E03C832B8304
:101080008B819C818230910551F12B813C812330F1
:10109000310534F48B819C818130910561F05AC017
:1010A0002B813C812330310571F18B819C8184300F
:1010B0009105E9F14FC0ABE3B0E0EBE3F0E08081F4
:1010C000482F8A81282F30E081E090E0022E02C074
:1010D000880F991F0A94E2F784278C933BC0A8E3FA
:1010E000B0E0E8E3F0E08081482F8A81282F30E0EB
:1010F00081E090E0022E02C0880F991F0A94E2F767
:1011000084278C9327C0A5E3B0E0E5E3F0E080817D
:10111000482F8A81282F30E081E090E0022E02C023
:10112000880F991F0A94E2F784278C9313C0A2E3D7
:10113000B0E0E2E3F0E08081482F8A81282F30E0A0
:1011400081E090E0022E02C0880F991F0A94E2F716
:1011500084278C930F900F900F900F90CF91DF9179
:101160000895DF93CF9300D000D0CDB7DEB7898349
:101170006A838981282F30E03C832B838B819C817B
:1011800082309105D9F02B813C812330310534F434
:101190008B819C818130910561F01EC02B813C8147
:1011A0002330310581F08B819C818430910581F061
:1011B00013C0EBE3F0E08A8180830EC0E8E3F0E047
:1011C0008A81808309C0E5E3F0E08A81808304C0DE
:1011D000E2E3F0E08A8180830F900F900F900F90F0
:1011E000CF91DF910895DF93CF9300D000D000D04E
:1011F000CDB7DEB78A836B834C838A81282F30E09A
:101200003E832D834D815E814230510541F18D81B8
:101210009E818330910534F42D813E81213031054A
:1012200061F052C04D815E814330510551F18D8195
:101230009E8184309105B9F147C0EAE3F0E08081F6
:10124000282F30E08B81882F90E0A90102C05595AE
:1012500047958A95E2F7CA018170898335C0E7E333
:10126000F0E08081282F30E08B81882F90E0A90169
:1012700002C0559547958A95E2F7CA018170898326
:1012800023C0E4E3F0E08081282F30E08B81882FB9
:1012900090E0A90102C0559547958A95E2F7CA01E9
:1012A0008170898311C0E1E3F0E08081282F30E074
:1012B0008B81882F90E0A90102C0559547958A95AA
:1012C000E2F7CA01817089838981882329F48A81A0
:1012D0006B814C810E94A30626960FB6F894DEBF60
:1012E0000FBECDBFCF91DF910895DF93CF93CDB7E0
:1012F000DEB7A5E5B0E0E5E5F0E0808181608C93A4
:10130000A5E5B0E0E5E5F0E080818D7F8C93A5E573
:10131000B0E0E5E5F0E080818B7F8C93A5E5B0E05F
:10132000E5E5F0E0808188608C93A4E5B0E0E4E539
:10133000F0E080818F7B8C93CF91DF910895DF93D4
:10134000CF9300D00F92CDB7DEB789838981282F44
:1013500030E03B832A838A819B818130910589F02B
:101360002A813B8122303105A1F08A819B8100973F
:10137000B9F4ABE5B0E0EBE5F0E0808180648C93FC
:101380000FC0ABE5B0E0EBE5F0E0808180688C93C6
:1013900007C0ABE5B0E0EBE5F0E0808180628C93C4
:1013A0000F900F900F90CF91DF910895DF93CF931F
:1013B00000D00F92CDB7DEB789838981282F30E026
:1013C0003B832A838A819B818130910589F02A8120
:1013D0003B8122303105A1F08A819B810097B9F4CD
:1013E000ABE5B0E0EBE5F0E080818F7B8C930FC044
:1013F000ABE5B0E0EBE5F0E080818F778C9307C040
:10140000ABE5B0E0EBE5F0E080818F7D8C930F9051
:101410000F900F90CF91DF910895DF93CF9300D07D
:10142000CDB7DEB79A83898389819A8190937500BD
:10143000809374000F900F90CF91DF910895DF9308
:10144000CF9300D0CDB7DEB79A83898389819A8103
:1014500090937700809376000F900F90CF91DF915B
:101460000895DF93CF9300D0CDB7DEB79A838983F9
:1014700089819A8190937900809378000F900F90E2
:10148000CF91DF9108951F920F920FB60F92112402
:101490002F933F934F935F936F937F938F939F937C
:1014A000AF93BF93EF93FF93DF93CF93CDB7DEB7A7
:1014B000E0917400F09175000995CF91DF91FF9153
:1014C000EF91BF91AF919F918F917F916F915F91BC
:1014D0004F913F912F910F900FBE0F901F90189535
:1014E0001F920F920FB60F9211242F933F934F9399
:1014F0005F936F937F938F939F93AF93BF93EF937C
:10150000FF93DF93CF93CDB7DEB7E0917600F091F4
:1015100077000995CF91DF91FF91EF91BF91AF9146
:101520009F918F917F916F915F914F913F912F91FB
:101530000F900FBE0F901F9018951F920F920FB62D
:101540000F9211242F933F934F935F936F937F9349
:101550008F939F93AF93BF93EF93FF93DF93CF93BB
:10156000CDB7DEB7E0917800F09179000995CF9181
:10157000DF91FF91EF91BF91AF919F918F917F91FB
:101580006F915F914F913F912F910F900FBE0F90F0
:101590001F901895DF93CF93CDB7DEB7AFE5B0E0DE
:1015A000EFE5F0E0808180688C93CF91DF91089522
:1015B000DF93CF93CDB7DEB7AFE5B0E0EFE5F0E076
:1015C00080818F778C93CF91DF910895DF93CF93B4
:1015D000CDB7DEB70E94D70C81E00E94FA0CCF9104
:1015E000DF910895DF93CF9300D0CDB7DEB78A8324
:1015F00019828A81813041F480E00E94E90590934C
:101600007C0080937B0004C010927C0010927B00D1
:1016100020917B0030917C00C901880F991F880FB1
:10162000991F880F991F820F931F892F99278695DD
:101630008695898380917B0090917C00CC01A0E00D
:10164000B0E02FEF30E040E050E0BC01CD010E945F
:101650000F10DC01CB01072E7AE0B695A795979580
:1016600087957A95D1F7702D80937A0080917A00D2
:101670000E94620D89810F900F90CF91DF910895A4
:10168000DF93CF93CDB7DEB70E94040E8FE19EE4C7
:101690000E94E10E80E090E00E94AB0E82E00E948A
:1016A000430ECF91DF910895DF93CF93CDB7DEB78F
:1016B00081E00E94E9059093800080937F008091F3
:1016C0007F0090918000CC01A0E0B0E020ED37E0F9
:1016D00040E050E0BC01CD010E940F10DC01CB01C5
:1016E000072E7AE0B695A795979587957A95D1F7C5
:1016F000702D8C509E4F90937E0080937D00809142
:101700007D0090917E000E94BD0ECF91DF910895E3
:10171000DF93CF93CDB7DEB7ADE2B0E0EDE2F0E01E
:10172000808180618C93ADE2B0E0EDE2F0E08081F9
:1017300081608C93ADE2B0E0EDE2F0E080818D7FDE
:101740008C93AEE2B0E0EEE2F0E080818E7F8C938D
:10175000ADE2B0E0EDE2F0E0808180648C93CF9167
:10176000DF910895DF93CF93CDB7DEB7ADE2B0E060
:10177000EDE2F0E080818F7E8C93ADE2B0E0EDE2AF
:10178000F0E0808180648C93CF91DF910895DF93A6
:10179000CF930F92CDB7DEB78983EFE2F0E0898176
:1017A0008083EEE2F0E080818823DCF7EFE2F0E076
:1017B00080810F90CF91DF910895DF93CF930F92A7
:1017C000CDB7DEB71982AAE2B0E0EAE2F0E08081AC
:1017D0008B7F8C93898180688983898184608983E8
:1017E00089818260898389818F7B898389818F7DCB
:1017F000898389818F7E89838981877F8983E0E4DA
:10180000F0E089818083E9E2F0E083E38083AAE26B
:10181000B0E0EAE2F0E0808180618C93AAE2B0E07F
:10182000EAE2F0E0808188608C930F90CF91DF91A5
:101830000895DF93CF93CDB7DEB7AAE2B0E0EAE236
:10184000F0E080818F7D8C93CF91DF910895DF93BD
:10185000CF930F92CDB7DEB7898304C0ECE2F0E0FE
:1018600089818083EBE2F0E08081829586958770A4
:10187000882F90E081709070882381F70F90CF912E
:10188000DF910895DF93CF930F92CDB7DEB704C0F9
:10189000ECE2F0E080818983EBE2F0E08081881F58
:1018A0008827881F8130A1F389810F90CF91DF9124
:1018B00008951F920F920FB60F9211242F933F930A
:1018C0004F935F936F937F938F939F93AF93BF9348
:1018D000EF93FF93DF93CF93CDB7DEB7E091850011
:1018E000F09186000995CF91DF91FF91EF91BF9123
:1018F000AF919F918F917F916F915F914F913F91A8
:101900002F910F900FBE0F901F9018951F920F925E
:101910000FB60F9211242F933F934F935F936F93C2
:101920007F938F939F93AF93BF93EF93FF93DF9337
:10193000CF93CDB7DEB7E0918300F0918400099595
:10194000CF91DF91FF91EF91BF91AF919F918F91D7
:101950007F916F915F914F913F912F910F900FBEAB
:101960000F901F901895DF93CF9300D0CDB7DEB7BF
:101970009A83898389819A819093840080938300DC
:101980000F900F90CF91DF910895DF93CF9300D008
:10199000CDB7DEB79A83898389819A819093860037
:1019A000809385000F900F90CF91DF910895DF9382
:1019B000CF93CDB7DEB7A3E5B0E0E3E5F0E08081FB
:1019C00080648C93A3E5B0E0E3E5F0E08081877F5D
:1019D0008C93A3E5B0E0E3E5F0E080818F7E8C930B
:1019E000A3E5B0E0E3E5F0E0808180628C93CF91E5
:1019F000DF910895DF93CF930F92CDB7DEB7898340
:101A0000A3E5B0E0E3E5F0E08081982F987F89813D
:101A1000892B8C930F90CF91DF910895DF93CF9313
:101A2000CDB7DEB7A3E5B0E0E3E5F0E08081887FE5
:101A30008C93CF91DF910895DF93CF93CDB7DEB72D
:101A4000A9E5B0E0E9E5F0E0808181608C93CF9179
:101A5000DF910895DF93CF93CDB7DEB7A9E5B0E06E
:101A6000E9E5F0E080818E7F8C93CF91DF9108953E
:101A7000DF93CF93CDB7DEB7A9E5B0E0E9E5F0E0BD
:101A8000808182608C93CF91DF910895DF93CF9313
:101A9000CDB7DEB7A9E5B0E0E9E5F0E080818D7F64
:101AA0008C93CF91DF910895DF93CF930F92CDB7B1
:101AB000DEB78983E2E5F0E0898180830F90CF91E2
:101AC000DF910895DF93CF930F92CDB7DEB789836F
:101AD000ECE5F0E0898180830F90CF91DF9108954C
:101AE000DF93CF93CDB7DEB7E2E5F0E08081CF9111
:101AF000DF910895DF93CF9300D0CDB7DEB79A83FF
:101B0000898389819A8190938800809387000F90C0
:101B10000F90CF91DF910895DF93CF9300D0CDB791
:101B2000DEB79A83898389819A8190938A00809312
:101B300089000F900F90CF91DF9108951F920F921F
:101B40000FB60F9211242F933F934F935F936F9390
:101B50007F938F939F93AF93BF93EF93FF93DF9305
:101B6000CF93CDB7DEB78091890090918A0000971E
:101B700029F0E0918900F0918A000995CF91DF91D9
:101B8000FF91EF91BF91AF919F918F917F916F9155
:101B90005F914F913F912F910F900FBE0F901F902B
:101BA00018951F920F920FB60F9211242F933F9307
:101BB0004F935F936F937F938F939F93AF93BF9355
:101BC000EF93FF93DF93CF93CDB7DEB7809187007C
:101BD00090918800009729F0E0918700F0918800AB
:101BE0000995CF91DF91FF91EF91BF91AF919F91B7
:101BF0008F917F916F915F914F913F912F910F90B6
:101C00000FBE0F901F901895DF93CF93CDB7DEB71F
:101C1000AFE4B0E0EFE4F0E080818D7F8C93AFE43F
:101C2000B0E0EFE4F0E0808182608C93AEE4B0E05D
:101C3000EEE4F0E0808188608C93AEE4B0E0EEE406
:101C4000F0E0808180618C93AFE4B0E0EFE4F0E0FD
:101C500080818F7B8C93AFE4B0E0EFE4F0E0808193
:101C600080688C93AFE4B0E0EFE4F0E080818F7E99
:101C70008C93AFE4B0E0EFE4F0E080818F7D8C9353
:101C8000CF91DF910895DF93CF930F92CDB7DEB759
:101C90008983AEE4B0E0EEE4F0E08081982F987F95
:101CA0008981892B8C930F90CF91DF910895DF93D9
:101CB000CF93CDB7DEB7AEE4B0E0EEE4F0E08081E4
:101CC000887F8C93CF91DF910895DF93CF93CDB729
:101CD000DEB7A9E5B0E0E9E5F0E0808184608C93AF
:101CE000CF91DF910895DF93CF93CDB7DEB7A9E50C
:101CF000B0E0E9E5F0E080818B7F8C93CF91DF91BC
:101D00000895DF93CF93CDB7DEB7A9E5B0E0E9E55D
:101D1000F0E0808180618C93A9E5B0E0E9E5F0E036
:101D2000808188608C93CF91DF910895DF93CF936A
:101D3000CDB7DEB7A9E5B0E0E9E5F0E080818F7EC0
:101D40008C93A9E5B0E0E9E5F0E08081877F8C9392
:101D5000CF91DF910895DF93CF9300D0CDB7DEB759
:101D60009A838983ECE4F0E089819A81918380836E
:101D70000F900F90CF91DF910895DF93CF9300D014
:101D8000CDB7DEB79A838983EAE4F0E089819A814E
:101D9000918380830F900F90CF91DF910895DF930F
:101DA000CF9300D0CDB7DEB79A838983E8E4F0E023
:101DB00089819A81918380830F900F90CF91DF91D9
:101DC0000895DF93CF9300D0CDB7DEB79A83898390
:101DD000E6E4F0E089819A81918380830F900F90EF
:101DE000CF91DF910895DF93CF93CDB7DEB7ECE4C9
:101DF000F0E080819181CF91DF910895DF93CF93BF
:101E000000D0CDB7DEB79A83898389819A81909378
:101E10008C0080938B000F900F90CF91DF910895ED
:101E2000DF93CF9300D0CDB7DEB79A8389838981C2
:101E30009A8190938E0080938D000F900F90CF9198
:101E4000DF910895DF93CF93CDB7DEB780918F00F8
:101E5000882321F481E080938F0002C010928F00CC
:101E6000CF91DF910895DF93CF93CDB7DEB7619720
:101E70000FB6F894DEBF0FBECDBF198A188A1F8631
:101E80000E948C0684E062E041E00E94F3080E9418
:101E9000A3050E94DD0B0E94880B0E94750980E05B
:101EA0000E949F0982E29FE00E940D0A0E94E60ABA
:101EB0000E94400B0E94CA0A0E94420C898B8989A9
:101EC000813419F481E4888B05C08989823411F446
:101ED00082E4888B80918F00882341F481E00E9406
:101EE000F20A8F8780E00E94C70B79C080E00E94D1
:101EF000F20A8F8781E00E94C70B80E090E0A8E49F
:101F0000B2E48B879C87AD87BE876B857C858D858A
:101F10009E8520E030E04AEF54E40E941F02DC017D
:101F2000CB018F839887A987BA876F817885898548
:101F30009A8520E030E040E85FE30E94790388233F
:101F40002CF481E090E09E838D833FC06F81788583
:101F500089859A8520E03FEF4FE757E40E941903F7
:101F600018164CF56B857C858D859E8520E030E0CC
:101F700040E251E40E941F02DC01CB01BC01CD0113
:101F80000E944900DC01CB019E838D830FC088EC49
:101F900090E09C838B838B819C810197F1F79C83DC
:101FA0008B838D819E8101979E838D838D819E8100
:101FB000009769F714C06F81788589859A850E949A
:101FC0004900DC01CB019E838D838D819E819A83A4
:101FD000898389819A810197F1F79A8389830E9485
:101FE000540B8F8563E00E94F60F66CFDF93CF938B
:101FF00000D0CDB7DEB789836A838981882F90E0CE
:10200000FC01E859FF4F8081982F90958A81692FB4
:102010000E94B1080F900F90CF91DF910895629FB9
:10202000D001739FF001829FE00DF11D649FE00DD0
:10203000F11D929FF00D839FF00D749FF00D659F31
:10204000F00D9927729FB00DE11DF91F639FB00D30
:10205000E11DF91FBD01CF01112408952F923F9278
:102060004F925F926F927F928F929F92AF92BF92A8
:10207000CF92DF92EF92FF920F931F93CF93DF9354
:10208000CDB7DEB7CA1BDB0B0FB6F894DEBF0FBEB1
:10209000CDBF09942A88398848885F846E847D84FE
:1020A0008C849B84AA84B984C884DF80EE80FD8000
:1020B0000C811B81AA81B981CE0FD11D0FB6F89476
:0E20C000DEBF0FBECDBFED010895F894FFCF37
:1020CE0000000000000000003F065B4F666D7D07BC
:0220DE007F671A
:00000001FF
